:100000004CC0000067C0000065C0000063C0000075
:1000100061C000005FC000005DC000005BC0000068
:1000200059C0000057C0000055C0000053C0000078
:1000300051C00000ECC000004DC000004BC00000EB
:1000400049C0000047C0000045C0000043C0000098
:1000500041C000003FC000003DC000003BC00000A8
:1000600039C0000037C0000035C0000033C00000B8
:1000700031C000002FC000002DC000002BC00000C8
:1000800029C0000027C0000025C000002902480246
:1000900054026C027A028802960211241FBECFEF2E
:1000A000D0E4DEBFCDBF19E0A0E0B1E0E8E2FDE0C2
:1000B00000E00BBF02C007900D92AE39B107D9F72F
:1000C00029E0AEE9B9E001C01D92A13BB207E1F71A
:1000D000BCD328C695CFFC010FB6F8946091AD094A
:1000E0007091AE098091AF099091B0090FBE309721
:1000F00021F0608371838283938308951816190613
:100100005CF00895000021503109E1F74F5F5F4F27
:100110008417950719F4089540E050E027E033E094
:10012000F1CF5E9888B95F9A00005F9882E090E016
:10013000E5CF089581E0F5CF0895813118F4815815
:10014000F0CF08958155EDCF089584E690E0D6DF95
:1001500088E3E7DF86E0E5DF8FE0E3DF81E0E1DFF2
:100160008AE090E0CBCF08955E9A88B95F9A00004C
:100170005F9881E090E0C2CF08951F93CF93DF9303
:10018000FB019081992351F0EB0111E0180FD5DFAD
:100190008991EADF812F98819111F7CFDF91CF917B
:1001A0001F91089560930A0170930B0180930C01D5
:1001B00090930D016093A1097093A2098093A30904
:1001C0009093A40908958BE0809381008DE790E0DF
:1001D000909389008093880082E080936F00109252
:1001E00085001092840080910A0190910B01A091EA
:1001F0000C01B0910D018093A1099093A209A093E5
:10020000A309B093A4098FB780688FBF08951F9288
:100210000F920FB60F9211248F939F93AF93BF93BA
:100220008091A1099091A209A091A309B091A4097C
:100230000197A109B1098093A1099093A209A09304
:10024000A309B093A409892B8A2B8B2B99F481E005
:100250008093A50980910A0190910B01A0910C0156
:10026000B0910D018093A1099093A209A093A309D5
:10027000B093A409BF91AF919F918F910F900FBE42
:100280000F901F901895613011F429980DC0299A8C
:100290000BC0882314F42A9A01C02A982B98880F3F
:1002A0002B9A9150B1F7089598E0F3CFCF93DF9355
:1002B00061E08CE0E8DF61E080E8E5DFC8EFD1E0F5
:1002C00060E080E0E0DF2197D9F7DF91CF910895DA
:1002D000289882E08A95F1F700C0289A82E08A95F2
:1002E000F1F700C061E081E2CEDF61E088ECCBDFB6
:1002F00061E086E0C8DF61E083E1C5DF61E080E2C4
:10030000C2DF61E08CE0BFDFD1CF0895CF93C82F6B
:10031000862F61E08064B7DF61E08C2F8068B3DFF7
:10032000CF9108951F93CF93DF93805290E0EC011B
:10033000CC0FDD1FC80FD91FCC0FDD1FCB58D84FF6
:1003400010E060E089919FDF1F5F1630D1F7DF91E9
:10035000CF911F910895CF93DF93EA01D7DF888172
:10036000882329F02196DEDF89918111FCCFDF916E
:10037000CF91089580E480937C0087E880937A0091
:100380000895ECE7F0E09081987F8770892B808357
:10039000EAE7F0E0808180648083808186FDFDCF84
:1003A000809178009091790008950F931F93CF93D7
:1003B000DF938C01862F880F880F880F805CB1DE59
:1003C000E801085F1F4F8991CFDEC017D107D9F729
:1003D000DF91CF911F910F910895AF92BF92CF926D
:1003E000DF92EF92FF920F931F93CF93DF93CDB7DE
:1003F000DEB72C970FB6F894DEBF0FBECDBFC0B0EE
:10040000D0B085E090E072D27C0185E090E06ED2C1
:100410008C0186E0E6E1F1E0DE01119601900D929B
:100420008A95E1F761E08EE091E0BFDF8AEA90E033
:1004300006D4682F8AEA90E00AD42091A809822F76
:1004400090E08730910508F076C0FC01EA5BFF4F31
:1004500030C210929E0981E090E09093A7098093AA
:10046000A60968DE86E85DDE81E07EDE6CE171E093
:1004700082E083DE8BE855DE81E076DE2BEFC2166C
:1004800019F01092A8096AC081E08093A809CCC134
:1004900095D363E070E0FAD19093A00980939F090F
:1004A00082E08093A8096BC080919F099091A00978
:1004B000009721F485E08093A8092BC18130910534
:1004C00021F483E08093A80978C0029709F057C00F
:1004D00084E08093A809C7C08091A6099091A709DC
:1004E000019721F482E08093A80949C086E08093B7
:1004F000A80964C18091A6099091A709019721F4E8
:1005000082E08093A8093BC086E08093A80956C189
:100510008091A6099091A709019721F482E0809328
:10052000A8092DC086E08093A80948C1D3FC46C124
:100530001092A80913C0233009F43FC030F42223DD
:1005400069F0223009F070C11AC0253009F4E1C009
:1005500008F489C0263009F067C130C1A7DE46E241
:1005600051E062E080E0F7DE43E351E064E080E0E8
:10057000F2DE42E451E065E080E0EDDE55C196DE5A
:1005800000E010E0E0919F09F091A009EE0FFF1F3D
:1005900081E090E08C0F9D1FE80FF91F0190F08122
:1005A000E02DE00FF11F60E080816DDE0F5F1F4FD7
:1005B000083F91E0190731F737C180E0E2DE5C01C6
:1005C00081E0DFDE6C014AE0B701C50105D34AE0F6
:1005D000B801C60101D3AEDD60E571E081E0CDDD9B
:1005E00028EEC21623E0D20634F1E0919F09F09183
:1005F000A009EE0FFF1FEC0FFD1F8181928185582E
:100600009340C9F497DD63E671E081E0B6DD81E0F7
:1006100090E09093A7098093A60980919E098F5F2F
:1006200080939E09CBD263E070E030D19093A00913
:1006300080939F09F9C084E6C816D10454F095E46C
:10064000A91A91E0B90A23EAA21622E0B20608F438
:10065000EBC070DD6BE671E081E08FDD1092A709E1
:100660001092A609E1C080E08CDE5C0181E089DEA9
:100670006C014AE0B701C501AFD24AE0B801C6013A
:10068000ABD258DD60E571E081E077DD84E6C81625
:10069000D10434F5E0919F09F091A009EE0FFF1FFE
:1006A000EC0FFD1F818192818D579540C9F442DD89
:1006B00063E671E081E061DD81E090E09093A7095D
:1006C0008093A60980919E098F5F80939E0976D2C0
:1006D00063E070E0DBD09093A00980939F09A4C0F1
:1006E00088EEC81683E0D80654F495E4A91A91E080
:1006F000B90A23EAA21622E0B20608F495C01ADD70
:100700006BE671E081E039DD1092A7091092A6092D
:100710008BC080E036DE6C0181E033DE5C014AE0B4
:10072000B701C60159D24AE0B801C50155D202DD70
:1007300060E571E081E021DD85E4C81A81E0D80A36
:1007400093EAC91692E0D90630F1E0919F09F09141
:10075000A009EE0FFF1FEC0FFD1F818192818D58C4
:100760009140C9F4E7DC63E671E081E006DD81E0F9
:1007700090E09093A7098093A60980919E098F5FCE
:1007800080939E091BD263E070E080D09093A00913
:1007900080939F0949C084E6A81AB10894E8A91675
:1007A00093E0B90608F440C0C5DC6BE671E081E077
:1007B000E4DC1092A7091092A60936C077DD80E02C
:1007C000BCDC80919E094AE0BE01665F7F4F90E0ED
:1007D00003D2B0DC66E771E081E0CFDCBE01665F8A
:1007E0007F4F87E0CADC8AEA90E029D260919E09B7
:1007F000861718F48AEA90E02AD28AEA90E01FD29B
:100800004AE0BE01695F7F4F90E0E6D161E771E0A9
:1008100081E1B3DCBE01695F7F4F8CE1AEDC4EE766
:1008200051E062E080E097DD2C960FB6F894DEBFD1
:100830000FBECDBFDF91CF911F910F91FF90EF9031
:10084000DF90CF90BF90AF9008958FEF82B911B82D
:1008500015B884B918B887B91BB88AB980E090E098
:100860003ADCCB01AED134DD85DD6FDC68EC70E0C5
:1008700080E090E097DCA7DC1092A809AEDD8091C3
:10088000A5098823E1F31092A509F8CF97FB072E5D
:1008900016F4009406D077FD08D014D007FC05D0DC
:1008A0003EF4909581959F4F0895709561957F4F87
:1008B0000895EE0FFF1F0024001C0BBE0790F69159
:1008C000E02D0994AA1BBB1B51E107C0AA1FBB1F47
:1008D000A617B70710F0A61BB70B881F991F5A95CC
:1008E000A9F780959095BC01CD0108950F931F93B2
:1008F000CF93DF938230910510F482E090E0E09195
:10090000AB09F091AC0920E030E0A0E0B0E0309716
:1009100019F1408151810281138148175907C8F0AC
:100920008417950769F4109731F012960C9312977B
:1009300013961C9327C00093AB091093AC0922C0F7
:100940002115310519F04217530718F49A01BD011A
:10095000EF01DF01F801DBCF21153105F9F0281B8C
:10096000390B2430310580F48A819B816115710532
:1009700021F0FB019383828304C09093AC098093A0
:10098000AB09FE01329644C0FE01E20FF31F8193D2
:10099000919322503109398328833AC02091A909C3
:1009A0003091AA09232B41F42091020130910301D7
:1009B0003093AA092093A9092091000130910101E7
:1009C0002115310541F42DB73EB7409104015091F6
:1009D0000501241B350BE091A909F091AA09E21742
:1009E000F307A0F42E1B3F0B2817390778F0AC0152
:1009F0004E5F5F4F2417350748F04E0F5F1F50932F
:100A0000AA094093A9098193919302C0E0E0F0E024
:100A1000CF01DF91CF911F910F910895CF93DF9375
:100A2000009709F481C0FC01329713821282A091D1
:100A3000AB09B091AC09109781F420813181820F0C
:100A4000931F2091A9093091AA092817390751F558
:100A5000F093AA09E093A90967C0ED0120E030E016
:100A6000CE17DF0740F44A815B819E014115510595
:100A7000F1F0EA01F5CFD383C28340815181840F25
:100A8000951FC817D90759F488819981840F951F3C
:100A90000296918380838A819B819383828321152F
:100AA000310529F4F093AC09E093AB093DC0E901AD
:100AB000FB83EA8349915991C40FD51FEC17FD07B9
:100AC00061F480819181840F951F0296E9019983D9
:100AD0008883828193819B838A83E0E0F0E0129691
:100AE0008D919C911397009719F0FD01DC01F7CFD0
:100AF0008D919C9111979D012E5F3F4F820F931F07
:100B00002091A9093091AA092817390769F430976B
:100B100029F41092AC091092AB0902C01382128220
:100B2000B093AA09A093A909DF91CF9108958F925C
:100B30009F92AF92BF92CF92DF92EF92FF92CF93AC
:100B4000DF93EC01688179818A819B816115710550
:100B50008105910521F464E279ED8BE597E02DE1C3
:100B600033EF41E050E081D049015A019B01AC01D3
:100B7000A7EAB1E496D06B017C01ACEEB4EFA5011D
:100B800094019BD0DC01CB018C0D9D1DAE1DBF1DC2
:100B9000B7FF03C00197A109B04888839983AA834E
:100BA000BB839F77DF91CF91FF90EF90DF90CF9045
:100BB000BF90AF909F908F900895B9CF86E091E05D
:100BC000B6CFA0E0B0E08093060190930701A09318
:100BD0000801B09309010895BB274A3031F49923E5
:100BE00022F4BDE2909581959F4F01C0BB27FB0188
:100BF0005527AA27880F991FAA1FA41710F0A41B16
:100C000083955051B9F7A05DAA3308F0A95DA1936F
:100C1000009779F7B111B1931192CB0100C0DC01BB
:100C2000FC01672F71917723E1F7329704C07C9123
:100C30006D9370836291AE17BF07C8F30895F99959
:100C4000FECF92BD81BDF89A992780B50895262FD1
:100C5000F999FECF1FBA92BD81BD20BD0FB6F894A1
:100C6000FA9AF99A0FBE01960895052E97FB16F48D
:100C700000940FD057FD05D024D007FC02D046F4D5
:100C800008C050954095309521953F4F4F4F5F4F8D
:100C9000089590958095709561957F4F8F4F9F4FE8
:100CA000089531D0A59F900DB49F900DA49F800D05
:100CB000911D11240895B7FFF4CFF3DF821B930B2E
:100CC0000895A1E21A2EAA1BBB1BFD010DC0AA1F8D
:100CD000BB1FEE1FFF1FA217B307E407F50720F0A5
:100CE000A21BB30BE40BF50B661F771F881F991F20
:100CF0001A9469F760957095809590959B01AC0169
:100D0000BD01CF010895A29FB001B39FC001A39F71
:100D1000700D811D1124911DB29F700D811D112434
:080D2000911D0895F894FFCF26
:100D28000000B109200001000000010000000000DF
:100D38000A15110A04008D0185037D052057656C8D
:100D4800636F6D6521002020466C61672047616DE7
:100D58006520002062792045726963204B776F6EA9
:100D68002000204C4220746F20737461727420003C
:100D780043686F6F73652061206469726563746985
:100D88006F6E00434F52524543540057524F4E47DF
:100D980000486967682053636F72653A2000202015
:100DA800524220746F207265736574200000000041
:100DB800000000000000000000000000000000002B
:100DC800000000000000000000000000000000001B
:100DD800000000000000000000000000000000000B
:100DE80000000000000000000000000000000000FB
:100DF80000000000000000000000000000000000EB
:100E080000000000000000000000000000000000DA
:100E18000000C0E0E0E0E0E0E0F0F0F0F0C0C0008A
:100E280000000000000000000000000000000000BA
:100E380000000000000000C0C0F0F0F0F0E0E0E0CA
:100E4800E0E0E0C00000000000000000000000003A
:100E5800000000000000000010103E3E3E3EFEFE76
:100E6800FEFEFEFE1F1F0F0F0F0F0F0303030101EE
:100E780001010F3E3EC0C00000000000000000005D
:100E880000000000000000C0C03E3E0F010101014B
:100E98000303030F0F0F0F0F1F1FFEFEFEFEFEFEC4
:100EA8003E3E3E3E10100000000000000000000022
:100EB800000000000000000000000000000000002A
:100EC800000000000000000000070738382000007C
:100ED800000000000000000020383807070000006C
:100EE80000000000000000000000000000000000FA
:100EF80000000000000000000000000000000000EA
:100F080000000000000000000000000000000000D9
:100F180000000000000000000000000000000000C9
:100F280000000000000000000000000000000000B9
:100F380000000000000000000000000000000000A9
:100F48000000000000000000000000000000000099
:100F58000000000000000000000000000000000089
:100F68000000000000000000000000000000000079
:100F78000000000000000000000000000000000069
:100F88000000000000000000000000000000000059
:100F98000000000000000000000000000000000049
:100FA8000000000000000000000000000000000039
:100FB8000000000000000000000000000000000029
:100FC8000000000000000000000000000000000019
:100FD8000000000000000000000000000000000009
:100FE80000000000000000000000000000000000F9
:100FF80000000000000000000000000000000000E9
:1010080000000000000000000000000000000000D8
:101018000000000000000000000000000000E0F0F8
:10102800F0F0F0F0F8F8F8FCFCFCFCE0E0E0000080
:1010380000000000000000000000000000000000A8
:101048000000000000000000000000000000000098
:101058000000000000000000000000000000000088
:1010680000E0E0FCFCFCFCFEFEFEFEFEFEFEFEFFD9
:10107800FFFF1F1F1F1F1F1F1F0707070303030370
:10108800031FFEFEE000000000000000000000005A
:101098000000000000000000000000000000000048
:1010A8000000000000000000000000000000000038
:1010B800000000000000000101010101010707070D
:1010C8000707070000000000000000000000000003
:1010D8000000000000000101017E7E808080000089
:1010E80000000000000000000000000000000000F8
:1010F80000000000000000000000000000000000E8
:1011080000000000000000000000000000000000D7
:1011180000000000000000000000000000000000C7
:1011280000000000000000000000000000000007B0
:101138000F0F0C000000000000000000000000007D
:101148000000000000000000000000000000000097
:101158000000000000000000000000000000000087
:101168000000000000000000000000000000000077
:101178000000000000000000000000000000000067
:101188000000000000000000000000000000000057
:101198000000000000000000000000000000000047
:1011A8000000000000000000000000000000000037
:1011B8000000000000000000000000000000000027
:1011C8000000000000000000000000000000000017
:1011D8000000000000000000000000000000000007
:1011E80000000000000000000000000000000000F7
:1011F80000000000000000000000000000000000E7
:1012080000000000000000000000000000000000D6
:10121800E0E0E0FCFCFCFCF8F8F8F0F0F0F0F0E0BE
:1012280000000000000000000000000000000000B6
:1012380000000000000000000000000000000000A6
:101248000000000000000000000000000000000096
:101258000000000000000000000000000000000086
:1012680000E0FEFE1F03030303030707071F1F1FFA
:101278001F1F1F1FFFFFFFFEFEFEFEFEFEFEFEFC01
:10128800FCFCFCE0E00000000000000000000000A2
:101298000000000000000000000000000000000046
:1012A8000000000000000000000000000000000036
:1012B8008080807E7E0101010000000000000000A7
:1012C80000000000000000000000000707070707F3
:1012D80007010101010101000000000000000000F9
:1012E80000000000000000000000000000000000F6
:1012F80000000000000000000000000000000000E6
:101308000000000C0F0F07000000000000000000A4
:1013180000000000000000000000000000000000C5
:1013280000000000000000000000000000000000B5
:1013380000000000000000000000000000000000A5
:101348000000000000000000000000000000000095
:101358000000000000000000000000000000000085
:101368000000000000000000000000000000000075
:101378000000000000000000000000000000000065
:101388000000000000000000000000000000000055
:1013980000000000000000000000000000002F0016
:1013A8000000000700070000147F147F1400242A9F
:1013B8007F2A120062640813230036495522500020
:1013C800000503000000001C224100000041221C0F
:1013D800000014083E08140008083E080800000031
:1013E800A06000000808080808000060600000000D
:1013F8002010080402003E5149453E0000427F404B
:1014080000004261514946002141454B3100181402
:10141800127F10002745454539003C4A49493000AC
:101428000171090503003649494936000649492929
:101438001E00003636000000005636000000081472
:10144800224100001414141414000041221408004E
:10145800020151090600324959513E007C1211120D
:101468007C007F49494936003E41414122007F4185
:1014780041221C007F49494941007F0909090100AF
:101488003E4149497A007F0808087F0000417F41B2
:1014980000002040413F01007F08142241007F40A6
:1014A800404040007F020C027F007F0408107F004C
:1014B8003E4141413E007F09090906003E41512154
:1014C8005E007F0919294600464949493100010152
:1014D8007F0101003F4040403F001F2040201F0087
:1014E8003F4038403F006314081463000708700841
:1014F8000700615149454300007F41410000552ADA
:10150800552A55000041417F0000040201020400F1
:101518004040404040000001020400002054545460
:1015280078007F4844443800384444442000384414
:1015380044487F00385454541800087E09010200BA
:1015480018A4A4A47C007F080404780000447D400B
:1015580000004080847D00007F1028440000004186
:101568007F4000007C04180478007C08040478009C
:10157800384444443800FC2424241800182424182F
:10158800FC007C0804040800485454542000043F1C
:10159800444020003C4040207C001C2040201C008F
:1015A8003C4030403C004428102844001CA0A0A027
:0E15B8007C004464544C4414141414141400A5
:00000001FF
